:1000000000100020C90100001102000011020000D0
:100010001102000011020000110200001102000094
:100020001102000011020000110200001102000084
:100030001102000011020000110200001102000074
:100040001102000011020000110200001102000064
:100050001102000011020000110200001102000054
:100060001102000011020000110200001102000044
:100070001102000011020000110200001102000034
:1000800011020000494F000011020000110200009F
:1000900011020000110200002D56000011020000A4
:1000A0001102000011020000110200008152000044
:1000B0001102000011020000F940000011020000CE
:1000C00011020000110200001102000011020000E4
:1000D00011020000110200001102000011020000D4
:1000E0001102000011020000A14F000011020000E7
:1000F00011020000110200001102000011020000B4
:1001000011020000110200001102000010B5054CA0
:10011000237833B9044B13B10448AFF300800123B3
:10012000237010BD18120020000000006CA1000018
:1001300008B5034B1BB103490348AFF3008008BD6A
:10014000000000001C1200206CA10000A3F5803A02
:10015000704700BF174B002B08BF134B9D46FFF79E
:10016000F5FF00218B460F461348144A121A05F07A
:100170008FFF0E4B002B00D098470D4B002B00D06B
:1001800098470020002104000D000D48002802D0EF
:100190000C48AFF3008005F049FF2000290005F06E
:1001A000DFFC05F02FFF00BF00000800000000008A
:1001B0000000000000100020181200206013002032
:1001C000000000000000000000B585B000F08AF8D3
:1001D0000C4B03930C4B02930B4B01930B4B009373
:1001E0000AE0039A131D0393029B191D02911268E2
:1001F0001A60019B04330193019A009B9A42F0D349
:10020000FFF7A8FF74A100000010002018120020C2
:10021000FEE7000000B583B000F020F801900A4B23
:10022000D3F808311B0AC3F308030093009B013382
:10023000019AB2FBF3F30193044A019B1360019B03
:10024000184603B05DF804FB00400E400810002083
:10025000014B1846704700BF00F0490282B01A4BAC
:10026000D3F8943003F00703023B032B1BD801A201
:1002700052F823F0950200008D0200008502000074
:100280009D020000114B1B68019310E04FF40043E6
:1002900001930CE00E4B1B68019308E00D4B1B68AB
:1002A0005B08019303E00B4B1B68019300BF064BF7
:1002B000D3F800311B0A03F01F030133019AB2FB8C
:1002C000F3F3184602B0704700400E4004100020BF
:1002D000001000200C100020014B1B6818467047CE
:1002E00000100020064B074A9A60054BD3F888306F
:1002F000034A43F47003C2F8883000BF704700BF60
:1003000000ED00E0000000004FF400431846704785
:100310004FF47A7318467047014B1B6818467047B4
:100320000410002084B001900B4B1A68019B134409
:100330000A4A934202D94FF0FF3309E0064B1B688B
:100340000393054B1A68019B1344034A1360039BF4
:10035000184604B0704700BF1010002000000420B1
:1003600082B001900091FEE700B583B00190019B3F
:100370001F2B04D940F22F110548FFF7F1FF01228E
:10038000019B02FA03F3184603B05DF804FB00BFBB
:10039000D894000000B587B0039002910192029BAF
:1003A0001F2B03D991210A48FFF7DAFF039B03F1C2
:1003B000424303F58013DA00029B13449B0005932C
:1003C000059B019A1A6000BF07B05DF804FB00BFEF
:1003D0004095000084B001900091019B03F14243DD
:1003E00003F58013DA00009B13449B000393039BE7
:1003F0001B68184604B07047054B1B6803F04003A8
:10040000002B01D1012300E000231846704700BFF4
:100410003C300E4008B5FFF7EFFF034683F00103C1
:10042000DBB2002B08D100BF12210448FFF7D2FF36
:100430000346002BF8D100E000BF08BD04300E4099
:1004400008B5FFF7E7FF044B5B681B0C03F00303E1
:10045000DBB2184608BD00BF00300E4000B585B0C5
:10046000019001230393019B124A934204D8002375
:1004700003930023029308E0019B0F4A934202D8A2
:100480000123029301E002230293039A10210B48F7
:10049000FFF780FF094BD3F8003123F08072029BF5
:1004A0001B0606491343C1F8003100BF05B05DF8D3
:1004B00004FB00BF0048E8010090D00300400E405C
:1004C00082B0034B1B680193019B184602B0704732
:1004D0001410002000B583B0FFF7C0FE0190074B59
:1004E000D3F800311B0A03F01F030133019A02FB0A
:1004F00003F3184603B05DF804FB00BF00400E4054
:1005000000B583B0104800F081FC03468DF803303D
:100510009DF80330072B05D0092B07D1FFF79EFE6E
:1005200001900BE0FFF7CCFF019007E0002301935F
:100530004FF493510548FFF713FF00BF019B184686
:1005400003B05DF804FB00BF06000E000896000033
:1005500000B585B00190019B002B1FD1214800F010
:1005600055FC03468DF80B3000BF9DF80B30013B66
:10057000072B29D801A252F823F000BFAB050000D9
:10058000C9050000C9050000B9050000C905000043
:10059000C9050000B1050000C10500004FF49451E9
:1005A0001148FFF7DDFE002317E00023039313E05B
:1005B000FFF786FF03900FE0FFF78EFE03900BE03E
:1005C000FFF788FF039007E00023039341F2972190
:1005D0000548FFF7C5FE00BF039B184605B05DF850
:1005E00004FB00BFB80032000896000000B585B0DB
:1005F000019000911F4B5B6803F04073039300234D
:10060000029312E01C4A029BDB0013441A79009B00
:10061000DBB29A4206D1184A029B52F83330019A53
:100620009A4206D9029B01330293029B042BE9D91B
:1006300000E000BF029B052B07D10323039341F287
:100640009E310E48FFF78CFE05E00B4A029BDB0053
:1006500013445B790393039B1B060393054B5B6871
:1006600023F040720349039B13434B6000BF05B066
:100670005DF804FB00000E406C9600000896000038
:1006800000B583B00E4B1B6C002B14BF012300235D
:100690008DF807300A4B41F671321A64FFF7D8FD26
:1006A000034600211846FFF7A1FF9DF80730002BF5
:1006B00002D0034B00221A6400BF03B05DF804FBB4
:1006C00000000E4000B585B0019000910D4B1B6CF1
:1006D000002B14BF012300238DF80F30094B41F686
:1006E00071321A6400990198FFF780FF9DF80F306E
:1006F000002B02D0034B00221A6400BF05B05DF846
:1007000004FB00BF00000E4086B001900F2305934C
:10071000019B03330493059B0393039A049B934229
:1007200028BF13460293029B1B070293029B1846A5
:1007300006B07047034B5B6A1B0903F003031846BE
:10074000704700BF00400E4082B00190054B5B6ACD
:1007500023F03002019B1B01024913434B6200BF8F
:1007600002B0704700400E4010B584B001900023E5
:100770000293019B424A934211D0019B404A93420B
:1007800007D8019B3F4A934209D0019B3E4A9342BE
:1007900005D041F29E413D48FFF7E2FD00E000BF79
:1007A000019800F033FB03460393019B344A9342C4
:1007B0001AD0019B324A93421DD8019B314A934281
:1007C00004D0019B304A934207D014E0304BD3F859
:1007D000803003F00703039313E02D4BD3F88430EC
:1007E00003F0070303930CE0294BD3F8883003F0A0
:1007F0000703039305E041F2CD412448FFF7B0FD24
:1008000000BF039B042B2ED801A252F823F000BF97
:1008100061080000250800002D0800003D080000C8
:1008200035080000FFF770FD029024E0FFF774FD2B
:10083000029020E0FFF76CFD02901CE0FFF70EFD38
:100840000446134BD3F800311B0E03F001030133B0
:100850001846FFF789FD0346B4FBF3F302930AE061
:100860000023029307E00023029341F21F5107483F
:10087000FFF776FD00BF029B184604B010BD00BF15
:100880000500240002001E0003002000089600005E
:1008900000400E4082B00190094BD3F8443103F080
:1008A0000103002B08D100BF054BD3F84021019B69
:1008B0001340002BF8D100E000BF02B0704700BF2A
:1008C00000400E4000BF704700BF704700B583B0C6
:1008D0000190019800F0BAF903460133184603B0BD
:1008E0005DF804FB00B587B001900B468DF803302E
:1008F00000230493019B1B0A03F00F03013B092B08
:1009000032D801A252F823F0310900003D0900005D
:100910006909000069090000370900004309000067
:100920004D09000069090000570900006309000033
:100930001B4B05931EE01B4B05931BE01A4B0593C5
:1009400018E01A4B05930123049313E0184B059309
:10095000102304930EE0174B05934FF48033049358
:1009600008E0154B059305E041F63B111348FFF7EE
:10097000F7FC11E0019B1B0B03F01F030393049B87
:10098000002B02D00498FFF785FF9DF803301A462C
:1009900003990598FFF7FEFC07B05DF804FB00BF64
:1009A00000400E40B0400E40C0400E40E0400E40BF
:1009B000E8400E40F0400E4050410E4008960000C6
:1009C00010B584B00190019B03F47813B3F5781F40
:1009D00000F01B81B3F5781F00F22281B3F5481FA8
:1009E00000F00E81B3F5481F00F21A81B3F5401FE5
:1009F00000F0E580B3F5401F00F21281B3F5381F17
:100A000000F0B680B3F5381F00F20A81B3F5101F6D
:100A100000F0E980B3F5101F00F20281B3F5001F6A
:100A200000F0B580B3F5001F00F2FA80B3F5F01FB7
:100A300079D0B3F5F01F00F2F380B3F5D01F00F0CA
:100A4000AB80B3F5D01F00F2EB80B3F5B01F7DD0C3
:100A5000B3F5B01F00F2E480B3F5A01F68D0B3F582
:100A6000A01F00F2DD80B3F5801F00F0C580B3F554
:100A7000801F00F2D580B3F5602F00F0B980B3F588
:100A8000602F00F2CD80B3F5402F3DD0B3F5402F5D
:100A900000F2C680B3F5202F23D0B3F5202F00F24B
:100AA000BF80B3F5802F0DD0B3F5802F00F2B88052
:100AB000002B03D0B3F5003F17D0B1E0FFF7CEFB1A
:100AC0000390B5E0FFF7CAFB03905B4BD3F80C3102
:100AD0001B0AC3F308030133039AB2FBF3F3039336
:100AE000A6E0FFF7BBFB0390A2E0FFF7B7FB039084
:100AF000514BD3F808311B0AC3F308030133039A9F
:100B0000B2FBF3F3039393E0FFF7A8FB03904A4B88
:100B1000D3F814311B0A03F01F030133039AB2FB0D
:100B2000F3F3039384E04548FFF71EFE03907FE054
:100B30004348FFF719FE03903F4BD3F8303103F0E1
:100B40000303039A22FA03F3039371E03B48FFF790
:100B50000BFE0390384BD3F8203103F00F031846F7
:100B6000FFF702FC0246039BB3FBF2F303935FE043
:100B70003248FFF7F9FD03902F4BD3F820311B09C2
:100B800003F00303039A22FA03F3039350E02D4882
:100B9000FFF7EAFD03904BE02A48FFF7E5FD0390DD
:100BA000254BD3F828311B0903F003031846FFF740
:100BB000DBFB0246039BB3FBF2F3039338E02148CF
:100BC000FFF7D2FD03901C4BD3F828311B0A03F02A
:100BD000030304331846FFF7C7FB0246039BB3FB2E
:100BE000F2F3039324E01648FFF7BEFD03901FE0E5
:100BF000FFF786FC03901BE0FFF762FC039017E011
:100C00000020FFF7A5FC039012E0FFF727FB044646
:100C10000198FFF75BFE0346B4FBF3F3039307E091
:100C20000023039341F66B210748FFF799FB00BFB0
:100C3000039B184604B010BD00400E4002001E0089
:100C400005002400030020000896000000B585B0D0
:100C50000190019B1B0903F00F030293029B013BD0
:100C6000092B00F2B88001A252F823F0950C000085
:100C7000A50C0000B50C0000D50C0000D70D00003D
:100C8000D70D0000E50C0000F50C00004F0D000032
:100C9000AF0D0000564BD3F800311B0A03F01F03C1
:100CA0000393A0E0524BD3F814311B0A03F01F0347
:100CB000039398E04E4BD3F800311B0E03F0010371
:100CC0000393039B01331846FFF74EFB0346013B9A
:100CD000039388E0464BD3F80C311B0AC3F3080397
:100CE000039380E0424BD3F808311B0AC3F3080397
:100CF000039378E0019B3F4A934204D0019B3E4A14
:100D000093420DD01AE03A4BD3F8203103F00F0391
:100D100003930398FFF728FB0346013B039315E079
:100D2000334BD3F820311B0903F0030303930398DB
:100D3000FFF71AFB0346013B039307E000230393ED
:100D400041F6DF212D48FFF70BFB00BF4BE0019B75
:100D50002B4A934204D0019B2A4A93420ED01DE0B5
:100D6000234BD3F828311B0903F0030303930398A3
:100D7000FFF7FAFA0346013B039317E01C4BD3F845
:100D800028311B0A03F003030393039B0433184623
:100D9000FFF7EAFA0346013B039307E000230393BE
:100DA00041F603311548FFF7DBFA00BF1BE0019B5A
:100DB000154A934206D10E4BD3F8303103F00303AA
:100DC000039307E00023039341F612310B48FFF72A
:100DD000C7FA00BF07E00023039341F63731074805
:100DE000FFF7BEFA00BF039B184605B05DF804FB91
:100DF00000400E408006160080162E000896000067
:100E000090171A0090273000A009140000B585B093
:100E1000019001238DF80F30019B03F00F03029323
:100E2000029B013B072B00F2E78001A252F823F05E
:100E3000510E0000B30E0000F10E0000F90F00008B
:100E4000430F0000810F0000F90F0000AB0F0000FE
:100E5000714BD3F8943003F00703023B052B23D8E2
:100E600001A252F823F000BF910E0000890E00008D
:100E7000810E0000990E0000A90E0000A10E0000D6
:100E800002238DF80F3013E003238DF80F300FE0AD
:100E900004238DF80F300BE00B238DF80F3007E0A3
:100EA0000C238DF80F3003E005238DF80F3000BFC1
:100EB000ABE0594BD3F8803003F00703042B0ED07E
:100EC000042B10D8012B02D0022B04D00BE00323FB
:100ED0008DF80F300BE002238DF80F3007E00A2366
:100EE0008DF80F3003E001238DF80F3000BF8CE048
:100EF000494BD3F8843003F00703013B032B1BD885
:100F000001A252F823F000BF190F0000210F0000CA
:100F1000310F0000290F000003238DF80F300FE080
:100F200002238DF80F300BE00A238DF80F3007E015
:100F300006238DF80F3003E001238DF80F3000BF3A
:100F400063E0354BD3F8883003F00703042B0ED051
:100F5000042B10D8012B02D0022B04D00BE003236A
:100F60008DF80F300BE002238DF80F3007E00A23D5
:100F70008DF80F3003E001238DF80F3000BF44E0FF
:100F8000254B1B6F03F00103002B05D0012B07D16C
:100F900009238DF80F3007E007238DF80F3003E0A9
:100FA00001238DF80F3000BF2FE01B4BD3F85C31CD
:100FB00003F03003302B16D0302B18D8202B0ED056
:100FC000202B14D8002B02D0102B04D00FE00123CB
:100FD0008DF80F300FE007238DF80F300BE004235E
:100FE0008DF80F3007E008238DF80F3003E0012360
:100FF0008DF80F3000BF08E000238DF80F3041F668
:101000008B610648FFF7ACF900BF9DF80F3018461A
:1010100005B05DF804FB00BF00400E4008960000DC
:1010200000B58BB001900B468DF803300323099374
:1010300003238DF823300023069300230593019B9F
:10104000112B1BD19DF80330042B03D1FFF744F97A
:1010500005900CE09DF80330052B08D100F010FA44
:101060000346BD4A934202D900F00AFA0590059B57
:10107000002B03D00021059801F040F8019B03F0FC
:101080000F030493049B013B072B00F25B8101A239
:1010900052F823F0B5100000BF110000F511000058
:1010A00045130000D51100009912000045130000FF
:1010B000C51200009DF80330023B0A2B48D801A25C
:1010C00052F823F0F1100000FD100000091100009B
:1010D0001B110000511100005111000051110000BE
:1010E00051110000451100002D11000039110000C0
:1010F0000423099300238DF823302FE00323099361
:1011000001238DF8233029E00223099302238DF86F
:1011100023309248FFF7A2F920E00123099303232B
:101120008DF823308D48FFF799F917E005230993CF
:1011300003238DF8233011E00723099306238DF84C
:1011400023300BE041F64C718548FFF709F9FFE0C9
:1011500041F651718248FFF703F9F9E09DF8233019
:10116000062B06D09DF8233001220121184600F0FD
:10117000CFFAFFF785FAFFF7A5FB059B002B01D0FF
:10118000FFF748F9774A099B5367FFF743F8039045
:10119000FFF764F803461846FFF760F9FFF750F9C8
:1011A000034619460398FFF78DFA059B002B03D1E0
:1011B0000121002000F0A2FFFFF786FBC8E06A4B88
:1011C00006939DF80330062B04D141F690716448D4
:1011D000FFF7C6F8069B002B01D0069B00E0634B8F
:1011E00006939DF80330062B04D14FF4FD515C4863
:1011F000FFF7B6F8069B002B01D0069B00E05C4B86
:1012000006939DF80330013B092B3BD801A252F80D
:1012100023F000BF3D1200004312000053120000F3
:101220008512000085120000631200008512000084
:1012300085120000851200007F1200000023079332
:1012400026E001220121002000F062FA0223079328
:101250001EE001220121012000F05AFA0123079328
:1012600016E0FEF7FBFF03461846FFF7F7F80122EA
:1012700002214048FFF78EF80323079308E0042378
:10128000079305E041F6CB713548FFF769F85FE059
:10129000069B079A1A605BE09DF80330072B02D08B
:1012A000092B04D007E02F4B00221A6709E02D4BD1
:1012B00001221A6705E042F255012948FFF750F86C
:1012C00046E045E09DF80330013B072B28D801A2FA
:1012D00052F823F0F5120000211300002113000042
:1012E0000B1300002113000021130000FB1200006B
:1012F0001B1300000023079318E0012201210420A2
:1013000000F006FA0123079310E0012201210220D8
:1013100000F0FEF90223079308E00323079305E09A
:1013200042F2B3010E48FFF71BF811E00D4BD3F862
:101330005C3123F03002079B1B010A491343C1F8BB
:101340005C3105E042F28A110548FFF709F800BF59
:101350000BB05DF804FB00BF002D31010148E8012E
:101360000896000000400E4080400E4088400E402D
:1013700084400E40B0400E4082B00190019B354A3F
:1013800093425FD0019B334A93425FD8019B324A1C
:10139000934253D0019B304A934257D8019B2F4A26
:1013A000934247D0019B2D4A93424FD8019B2C4A30
:1013B00093423BD0019B2A4A934247D8019B294A3A
:1013C00093422FD0019B274A93423FD8019B264A44
:1013D000934223D0019B244A934237D8019B234A4E
:1013E000934217D0019B214A93422FD8019B204A58
:1013F00093420BD0019B1E4A934227D8019B1D4A62
:10140000934203D0019B1C4A93421FD11B4BD3F83C
:1014100080301CE0194BD3F88C3018E0174BD3F810
:10142000983014E0154BD3F89C3010E0134BD3F8F0
:10143000A0300CE0114BD3F8A83008E00F4BD3F8E4
:10144000AC3004E00D4BD3F8B03000E00023184678
:1014500002B0704780D543020048E80180BA8C0191
:10146000C0EA21010024F400405DC600C0CF6A003C
:1014700000093D0040420F0080841E00B081E00F53
:10148000014B1B68184670470C10002000B587B050
:1014900001900198FFF770FF0590059B002B03D08A
:1014A000059BB3F1FF3F04D142F255315148FEF79D
:1014B00057FF514B1B6804934F4A019B1360112047
:1014C000FFF7A4FC0346052B03D1FFF7D9F8FFF77C
:1014D000F9F900BF18214948FEF77CFF0346002BAD
:1014E000F8D1059BB3F1FF3F04D142F26631414888
:1014F000FEF736FF019B424A93421AD0019B404AB5
:1015000093421BD8019B3F4A934204D0019B3E4A21
:10151000934207D012E0059B23F0C06343F0806341
:1015200005930CE0059B23F0C06343F00073059323
:1015300005E0059B23F0C063059300E000BF112088
:10154000FFF764FC0346052B02D10198FEF786FFE6
:10155000019A049B9A4203D90121019800F0CEFD23
:101560002A4A059B13611120FFF750FC0346052B07
:1015700026D1FEF74FFE0390039A019B9A4204D9AD
:1015800042F292311B48FEF7EBFE1B4B1B68039A9D
:101590009A4204D942F293311648FEF7E1FE164B07
:1015A0001B68019A9A4204D042F294311148FEF726
:1015B000D7FEFEF745FF034619460398FFF782F86A
:1015C000FEF74CFE03461846FEF748FF019A049BBF
:1015D0009A4203D80121002000F090FD1120FFF76E
:1015E00015FC0346052B01D1FFF76EF900BF07B0CC
:1015F0005DF804FB089600000C10002040410E40EE
:1016000000093D0040420F0080841E0000400E4053
:1016100010B584B001901120FFF7F8FB0346042BAE
:1016200004D142F273413748FEF79AFE01220021AD
:10163000022000F06DF8019B5B78002B07D1019B25
:101640009B78002B03D1019BDB78002B04D042F266
:10165000AF412C48FEF784FE00230393019B1B7CC3
:10166000012B04D142F2B6412648FEF779FE019BD8
:101670001B7C022B01D101230393234B5B6A23F0D4
:1016800001022149039B13434B62019B1B781A46BD
:1016900008211E48FEF77EFE019B9B88DB02019A13
:1016A000527A1146184A0B43D362174B1B6B03F057
:1016B0007F62019BDB88DB021343019A927A1A4313
:1016C000019B1B7ADB0142EA0304019B1B7A18464B
:1016D000FFF71AF803460C4A23431363019B5B7B15
:1016E0001A03019B9B7B1B011343019AD27B1A4374
:1016F000019B1B7B1B04044913434B6300BF04B0D5
:1017000010BD00BF0896000000400E4024400E406F
:1017100000B589B003468DF807300B468DF80630CA
:1017200013468DF805309DF80730042B3BD801A2F5
:1017300052F823F0911700007F1700005B1700009C
:10174000491700006D17000001230593022304933D
:1017500001230793002306932BE00423059308231A
:101760000493032307930223069322E01023059397
:1017700020230493052307930423069319E04023B1
:10178000059380230493072307930623069310E011
:101790004FF4807305934FF4007304930923079368
:1017A0000823069305E042F2D8514948FEF7D8FDD8
:1017B0008BE09DF80630002B6AD000238DF80F30A7
:1017C0009DF80730022B1BD1FEF7B4FF0346002B18
:1017D00016D1404BDB6B03F48063002B04D142F243
:1017E000E7513B48FEF7BCFD01238DF80F303A4B23
:1017F0005B6A03F00103012B02D10120FEF7A4FF75
:10180000354A059B136600BF06993448FEF7E2FD92
:101810000346002BF8D09DF80530002B55D000BFB3
:1018200007992E48FEF7D6FD0346002BF8D09DF809
:101830000730022B49D19DF80F30002B45D0264BA5
:101840005B6A03F00103012B05D101222021022054
:1018500000F090F903E00021022000F02DF90220B1
:1018600000F03EF80290012200210220FFF750FF15
:101870000299022000F074F8174A059B136600BF16
:1018800007991648FEF7A6FD0346002BF8D01CE08A
:10189000114A049B136600BF0F4BD3F8903001210F
:1018A000069A01FA02F21340002BF5D19DF805309B
:1018B000002B0AD000BF084BD3F890300121079AC3
:1018C00001FA02F21340002BF5D109B05DF804FBD8
:1018D0000896000000300E4000400E4090400E4040
:1018E00000B585B003468DF807309DF80730013B01
:1018F000032B24D801A252F823F000BF0D190000D9
:10190000311900001919000025190000124B1B6A3B
:10191000C3F3080303931AE00F4B1B6903F07F0323
:10192000039314E00C4B9B6903F07F0303930EE0D9
:10193000094BD3F89C30C3F30A03039307E0002359
:10194000039342F264610548FEF70AFD00BF039B62
:10195000184605B05DF804FB00400E4008960000F4
:1019600000B585B0034600918DF807309DF807302B
:10197000013B032B00F28D8001A252F823F000BF3F
:1019800091190000451A0000D11900000B1A00003F
:10199000009BB3F5007F04D342F289614248FEF711
:1019A000DFFC009BC3F30803009300BF1A213F48EC
:1019B000FEF710FD0346002BF8D13D4B1B6A23F4C4
:1019C000FF7323F001033A49009A13430B6266E068
:1019D000009B7F2B04D942F296613348FEF7C0FC8E
:1019E000009B03F07F03009300BF18212F48FEF7F0
:1019F000F1FC0346002BF8D12D4B1B6923F07F022D
:101A00002B49009B13430B6149E0009B7F2B04D9BA
:101A100042F2B1612448FEF7A3FC009B03F07F0370
:101A2000009300BF19212148FEF7D4FC0346002B88
:101A3000F8D11F4B9B6923F07F021D49009B134384
:101A40008B612CE01A4BD3F8903003F00403002B89
:101A500004D042F2C1611448FEF782FC144B5B6A69
:101A600023F03003124A43F010035362009BDB095A
:101A700003F00F031846FEF747FE03900C4B1A6B5A
:101A80000C4B1340009A1A430949039B13430B6301
:101A900005E042F2DB610448FEF762FC00BF00BFD4
:101AA00005B05DF804FB00BF0896000040410E4001
:101AB00000400E4000F8FF0F00B585B003460A460F
:101AC0008DF8073013468DF806309DF80730022B4D
:101AD00004D042F2F3612448FEF742FCFEF72AFEEE
:101AE0000346002B03D14FF4400303931DE09DF800
:101AF0000630302B0DD0302B0FDC002B05D0202BE7
:101B00000BD14FF4000303930FE04FF44003039312
:101B10000BE04FF44003039307E0144B039342F2AE
:101B20000E711148FEF71CFC00BF00BF104BD3F82C
:101B30009020039B1340039A9A42F7D1039B03F42E
:101B40008003002B0AD00A4BD3F8A03003F4806343
:101B5000002B14BF01230023DBB200E00123184651
:101B600005B05DF804FB00BF08960000FF33E107F5
:101B700000400E4000B583B003468DF807300B4699
:101B80008DF8063013468DF805309DF80730022B8E
:101B90001AD19DF80630002B08D0114B4FF480620B
:101BA000C3F8A8200E4A9DF8063053669DF805300C
:101BB000002B0FD09DF806209DF8073011461846DF
:101BC000FFF77AFF034607E042F244710548FEF74B
:101BD000C7FB00E000BF0123184603B05DF804FB1B
:101BE00000400E400896000082B0EFF3108300938F
:101BF000009B019372B600BF019B184602B070476C
:101C000082B00190019B002B01D162B600BF00BFE2
:101C100002B0704784B0EFF311830193019B0393EB
:101C200060230293029B83F3118800BF039B184635
:101C300004B0704784B00190019B0393039B83F32E
:101C4000118800BF00BF04B0704708B5FEF7E2FA84
:101C500000BF08BD00B587B0039002910192029BBE
:101C60001F2B03D991210A48FEF77AFB039B03F14E
:101C7000424303F58013DA00029B13449B00059353
:101C8000059B019A1A6000BF07B05DF804FB00BF16
:101C90009496000084B001900091019B03F14243AF
:101CA00003F58013DA00009B13449B000393039B0E
:101CB0001B68184604B07047054B1B6803F04003CF
:101CC000002B01D1012300E000231846704700BF1C
:101CD0003C300E4008B5FFF7EFFF034683F00103E9
:101CE000DBB2002B08D100BF12210448FFF7D2FF5E
:101CF0000346002BF8D100E000BF08BD04300E40C1
:101D000008B5FFF7E7FF044B5B681B0C03F0030308
:101D1000DBB2184608BD00BF00300E4082B0019013
:101D2000024A019BD36200BF02B0704700300E40F0
:101D3000014B5B6A1846704700300E40024B002290
:101D40005A6300BF704700BF00300E40024B4AF696
:101D5000E8525A6300BF704700300E40024B002229
:101D6000C3F8802100BF704700400E40034B45F68A
:101D70000E02C3F8802100BF704700BF00400E4034
:101D800082B003468DF807309DF80730C3F1020397
:101D9000102202FA03F3184602B0704710B584B05F
:101DA00003468DF807309DF80730002B1BD14A4BB6
:101DB000D3F89030494A13601120FFF727F8034603
:101DC0001A46474B1A70FFF785FF464B5B681B0CA2
:101DD000DBB203F00303DAB2434B1A703E4B1B69CC
:101DE000424A136075E0FFF767FF0346002B07D0F8
:101DF0003D4B1B783B4C1846FFF7C2FF034623615F
:101E0000354BD3F8803103F001030393FFF7AEFFA6
:101E100000230293314B1B6803F00103029A134322
:101E200002932E4B1B6803F01003029A1343029394
:101E30002A4B1B6803F04003029A13430293274B7B
:101E40001B6803F00403029A13430293234B1B689D
:101E500003F48073029A134302931F4A029B136692
:101E6000FFF738FF1F4B1B6803F01003002B18D03F
:101E700000BF194BD3F8403103F08073002BF8D129
:101E8000154A1A4B1B681361154B1B78052B08D19B
:101E9000174B1C68FFF734FF034619462046FEF730
:101EA00011FC0F4B1B78052B05D00D4B1B781946E9
:101EB0001120FFF7B5F8094B1B6803F00103002B55
:101EC00002D1054B02221A66039B002B01D0FFF7BB
:101ED00045FF00BF04B010BD00400E40401200207E
:101EE0004412002000300E4045120020481200200D
:101EF0000C10002000B583B0FFF7DEFE034683F030
:101F00000103DBB2002B1FD1FFF7E4FE104B1B686F
:101F10001B0A03F0030301930D4B5B681B0C03F0DA
:101F200003030093019A009B9A4206D9084B1B6851
:101F3000074A43F01003136007E0054B1B68044A8F
:101F400023F01003136000E000BF03B05DF804FB52
:101F500000300E4082B00A4B1B6803F01003002BC8
:101F60000BD0084B1B691B0C03F01F030193019B53
:101F7000082B02D1044B054A1A6000BF02B070471B
:101F800000300E4000400E400C100020C0EA21013D
:101F900000BF704700BF704700BF704700BF704769
:101FA00000B585B003468DF807309DF80730002B4B
:101FB00002D00020FFF7F2FEFFF79CFF1D4B1B69CC
:101FC0001C4A43F004031361FFF7E2FFFFF7E2FF4F
:101FD000194B1B6803F01003002B08D0FFF704FE19
:101FE000039007F075FA0398FFF70AFE00E030BF90
:101FF000FFF7D4FFFFF7D0FF9DF80730002B03D089
:102000000120FFF7CBFE01E0FFF7A4FF0B4B1B689D
:102010000A4A23F0004313609DF8073083F0010360
:10202000DBB2002B01D0FFF710FE00BF05B05DF85A
:1020300004FB00BF00ED00E000300E404C310E40CC
:1020400000B585B003468DF807309DF80730002BAA
:1020500002D00020FFF7A2FEFFF74CFF234BD3F87E
:10206000803103F001030393FFF780FE1F4B4FF411
:1020700020721A66039B002B01D0FFF76FFE1C4BEA
:102080001B691B4A43F004031361FFF781FF194BDF
:102090001B6803F01003002B08D0FFF7A5FD02908A
:1020A00007F016FA0298FFF7ABFD00E030BFFFF72C
:1020B00073FF9DF80730002B03D00120FFF76EFE61
:1020C00001E0FFF747FF0C4B1B680B4A23F000436E
:1020D00013609DF8073083F00103DBB2002B01D0C1
:1020E000FFF7B3FD00BF05B05DF804FB00400E40F4
:1020F00000ED00E000300E404C310E4000B585B0E0
:1021000001900B468DF80330FFF7D6FD034683F0B0
:102110000103DBB2002B2AD1019B002B0FD1164B00
:10212000D3F800311B0A03F01F0301330293FEF7BB
:1021300095F80246029B02FB03F3039301E0019B27
:1021400003930E4B1B78002B0AD0039B0C4A93423F
:1021500006D89DF803301946022000F013F807E076
:102160009DF803301946002000F00CF800E000BF95
:1021700005B05DF804FB00BF00400E403C1200209B
:10218000002D310110B586B003460A468DF80730A0
:1021900013468DF80630FFF78FFD034683F00103E9
:1021A000DBB2002B3FD1FFF7ABFD03461A469DF88B
:1021B0000730934239D01E4BD3F800311B0A03F08D
:1021C0001F0301330593FEF749F80490049B059A19
:1021D00002FB03F303939DF80730022B0CD1039B02
:1021E000144A934204D940F231611348FEF7B8F81B
:1021F00002210498FEF766FA104C9DF80730184645
:10220000FFF7BEFD034623619DF80630002B01D089
:10221000FFF760FD9DF80730002B07D100210498DF
:10222000FEF750FA02E000BF00E000BF06B010BDAC
:1022300000400E40002D3101F896000000300E40A5
:1022400000B583B001900E4B1B6823F44072019BD4
:102250005B781B020A4913430B60019B5B78022BDE
:102260000AD1084B5B6A03F00053002B04D040F204
:102270006D610548FEF774F800BF03B05DF804FB1C
:1022800000300E4000400E40F89600000123184632
:102290007047000000B583B00C4BDB6E0B4A43F077
:1022A0008073D36600210A48FFF7F4FC0190019B7C
:1022B000002B03D0042000F075FD02E0002000F0A8
:1022C00071FD00BF03B05DF804FB00BF00300E409D
:1022D0004C300E4000B58BB001230993099B1B05C0
:1022E0000893424BDB6C1B0A03F00F030793404B30
:1022F0001B881A463E4B1B8828335B08134403F1A6
:102300002801079B5A1C13469B001344B1FBF3F3AF
:10231000013B0693069B059307230493049A059BB0
:10232000934228BF13460693069B1B060693069B03
:1023300023F0E063002B04D040F689012D48FEF71E
:102340000FF8089B23F4E003002B04D040F68A0129
:102350002848FEF705F8254BDB6C23F0EE62069962
:10236000089B0B4321491343CB64234BB3F9003043
:10237000002B36DB204BB3F90030ADF80E30BDF842
:102380000E20BDF80E3028335B08134403F12802F9
:10239000079B01335900079B01335B080B44B2FBD9
:1023A000F3F30293029B019307230093009A019B8E
:1023B000934228BF13460293029B1B010293029B88
:1023C00023F07003002B04D040F6A2010948FDF76A
:1023D000C7FF064B1B6D23F070020449029B134399
:1023E0000B6500BF0BB05DF804FB00BF00300E4072
:1023F00034120020F89600003812002082B00190BC
:102400000B46ADF80230019B9AB2044B1A80044A85
:10241000BDF80230138000BF02B0704734120020B4
:102420003812002000B583B003468DF807309DF8C0
:102430000730002B02D0012B04D007E0084B094ADB
:102440009A6509E0064B084A9A6505E040F6CE0118
:102450000648FDF785FF00BF00BF03B05DF804FB31
:1024600000300E4077402057372110B7F896000013
:1024700000B585B003468DF807300B468DF8063061
:1024800013468DF80530344BD3F8803103939DF813
:102490000630032B1CD801A252F823F0AD24000013
:1024A000B5240000BF240000C9240000039BDBB258
:1024B000039314E0039B1B0ADBB203930FE0039B1F
:1024C0001B0CDBB203930AE0039B1B0E039306E095
:1024D00040F612112148FDF743FF002338E09DF834
:1024E0000530002B16D1039B1B030393039B23F49E
:1024F0007043002B06D040F61D111848FDF730FF41
:10250000002325E0164BDB6E23F470421449039B35
:102510001343CB669DF80530012B18D1039B1B0399
:102520000393039B23F47043002B06D040F629113C
:102530000A48FDF715FF00230AE0094BD3F8EC30F9
:1025400023F470420649039B1343C1F8EC30012386
:10255000184605B05DF804FBB081E00FF896000066
:1025600000300E4000B589B00390029111461A4622
:102570000B468DF8073013468DF80630002307937D
:10258000002306939DF806301B029DF80720002AC1
:1025900001D0012200E0002213430593059B40F285
:1025A000013293425CD0059B40F20132934200F22B
:1025B0009380059BB3F5407F00F08280059BB3F5C7
:1025C000407F00F28980059B40F2012293423BD07C
:1025D000059B40F2012293427ED8059BB3F5007F14
:1025E00062D0059BB3F5007F76D8059B40F20112BF
:1025F00093421DD0059BB3F5817F6DD2059BB3F54A
:10260000807F45D0059BB3F5807F65D8059B002B67
:1026100032D0059B012B5FD1374BD3F87431079330
:10262000079B1B0ADBB20693079BDBB2079359E0BB
:10263000314BD3F874310793079B1B0E0693079B0E
:102640001B0CDBB207934DE02B4BD3F8783107938B
:10265000079B1B0ADBB20693079BDBB2079341E0A3
:10266000254BD3F878310793079B1B0E0693079BE6
:102670001B0CDBB2079335E01F4BD3F86C3107938B
:10268000079B1B0ADBB20693079BDBB2079329E08B
:10269000194BD3F86C310793079B1B0E0693079BCE
:1026A0001B0CDBB207931DE0134BD3F8703107937B
:1026B000079B1B0ADBB20693079BDBB2079311E073
:1026C0000D4BD3F870310793079B1B0E0693079BA6
:1026D0001B0CDBB2079305E040F68E110748FDF7AF
:1026E0003FFE00BF039B079A1A60029B069A1A607E
:1026F00000BF09B05DF804FBB081E00FF896000060
:1027000000B585B003468DF80730424B5B6B012B5B
:102710000CBF012300238DF80F30FFF717FB00BF1C
:102720003C4B9B6F03F00103002BF9D1394B1B6C21
:1027300003F003030293029B002B04D001220D211E
:102740003548FFF787FA029BDBB29DF807209A42D3
:1027500009D19DF80730002B58D100220D212E48B9
:10276000FFF778FA52E0029B032B02D0029B002B6A
:1027700022D19DF80730022B03D09DF80730012BA2
:102780001AD14FF40020FFF7C9FA00BF214B9B6F0D
:1027900003F00103002BF9D11E4B1B6C23F0030344
:1027A0001C4A43F00103136400BFFFF7C1FA03465C
:1027B00003F40023002BF8D000BF164B9B6F03F0EF
:1027C0000103002BF9D1134B1B6C23F003029DF87E
:1027D0000730104913430B6400BF0E4B9B6F03F08F
:1027E0000103002BF9D19DF80730002B14BF012302
:1027F0000023DBB21A460D210748FFF72BFA9DF89C
:102800000F30002B03D0FFF799FA00E000BF05B0AE
:102810005DF804FB00300E4054300E4000B585B02A
:1028200001906C4B02229A636A4B9B6B03F00F037F
:10283000022B06D040F64B216748FDF791FD00239F
:10284000C3E0FFF723FD019B1B89C82B04D940F689
:1028500055216148FDF784FD019B9A88019B1B89E6
:102860009A4204D940F656215B48FDF779FD019B59
:10287000B3F90C30C82B04DD40F657215648FDF75C
:102880006FFD019B5B78012B09D1019B9B88C82BB5
:1028900012D940F65B215048FDF762FD0CE0019B28
:1028A0005B78022B08D1019B9B880A2B04D94FF43B
:1028B00026614948FDF754FD019BDB8842F2107206
:1028C000934204D940F668214348FDF749FD019B36
:1028D000DB884A2B02D80023039315E0019BDB8899
:1028E000B3F5FA7F03D24FF0805303930CE0019BC2
:1028F000DB8840F6C312934203D84FF00053039392
:1029000002E04FF040530393324BDB6C23F0405313
:1029100023F00103019AB2F90C20002A01DB012106
:1029200000E00021039A0A432A491343CB64294B50
:10293000D3F8EC30274A43F44073C2F8EC30019BE3
:102940009A88264B1A80FFF7A5FC019B1B891A4623
:10295000019BB3F90C3019461046FFF74FFD019B60
:102960009B88184600F0ACF9019B9B7B1846FFF74B
:1029700059FD019B5B8801220121184600F032F8C5
:10298000034683F00103DBB2002B06D040F69F2103
:102990001148FDF7E5FC002317E00E4BDB6B0D4AF9
:1029A00043F48063D363019B5B781846FFF7A8FE6E
:1029B000019B9B7A202B01D1012300E000231A46C2
:1029C00005210748FFF746F90123184605B05DF8D1
:1029D00004FB00BF00300E40F896000036120020C5
:1029E0003C300E4010B594B001900B468DF803308A
:1029F00013468DF80230002313930023119309AB83
:102A000000221A605A609A6006AB00221A605A606F
:102A10009A6003AB00221A605A609A60A44B1B882C
:102A2000ADF8083000238DF80A30019BB3F5E16F53
:102A300006D3019B40F6B832934201D8012300E04F
:102A400000238DF843309DF8433003F001038DF8E7
:102A500043309DF8433083F00103DBB2002B06D0F6
:102A600040F6EE219348FDF77BFC00231DE1019B1E
:102A7000B3F5E16F8CBF012300238DF842309DF840
:102A80004230002B0AD04FF4E163139340F6B83381
:102A90001193119A139BD31A129309E04FF4966382
:102AA00013934FF4E1631193119A139BD31A12936A
:102AB0009DF84230002B0BD07F4BD3F86831089340
:102AC000089B1B0E0593089B1B0CDBB208930AE0C6
:102AD000794BD3F868310893089B1B0ADBB2059346
:102AE000089BDBB20893754BDB6C1B0FDBB203F06A
:102AF0000303DBB28DF808309DF808309DF84220C2
:102B000003A906A8FFF72EFD6C4BD3F8EC301B0A87
:102B1000DBB203F00303DBB28DF809309DF8094006
:102B20009DF8422003AB191D06AB181D2346FFF785
:102B300019FD019A139BD31A0599089A8A1A03FB67
:102B400002F2129BB2FBF3F30B930B9A089B134414
:102B50000B93019A139BD31A0399069A8A1A03FBC3
:102B600002F2129BB2FBF3F30993099A069B1344FA
:102B70000993019A139BD31A0499079A8A1A03FBA3
:102B800002F2129BB2FBF3F30A930A9A079B1344D7
:102B90000A930B9A059B9A4213D80B9A089B9A4268
:102BA0000FD30A9A049B9A420BD80A9A079B9A421F
:102BB00007D3099A039B9A4203D8099A069B9A4223
:102BC00006D240F63C313B48FDF7CAFB00236CE0DF
:102BD0009DF80230002B12D0384BDB6D23F4FE43FE
:102BE00023F002030B9A120213439DF84220002A9D
:102BF00001D0022200E0002230491343CB659DF84A
:102C00000330002B50D09DF808109DF84230002270
:102C10001846FFF72DFC034683F00103DBB2002BBF
:102C200006D040F64B312348FDF79AFB00233CE0E9
:102C30009DF809109DF8423001221846FFF718FC54
:102C4000034683F00103DBB2002B06D040F653317C
:102C50001848FDF785FB002327E0099B0F930A9B8B
:102C60000E930E9A0F9B934238BF13460993099B0C
:102C70000D93E7230C930C9A0D9B934228BF1346A8
:102C800009930E4B5B6E23F4FF7323F00103099A43
:102C9000520013439DF84220002A01D0012200E097
:102CA0000022064913434B660123184614B010BD99
:102CB0005C970000F8960000B081E00F00300E40F5
:102CC00000B585B0019000230393344B1B6F03F0D4
:102CD00007030293314BDB6C03F00103002B14D08C
:102CE000029B012B11D9019B132B02D804230393C0
:102CF0003DE0019B132B05D9019B272B02D808230C
:102D0000039334E01023039331E0244BDB6C03F096
:102D10000103002B14D1029B012B11D8019B092B1D
:102D200002D80423039322E0019B092B05D9019BC0
:102D3000132B02D80823039319E01023039316E002
:102D4000164BDB6C03F00103002B0BD0029B012B15
:102D500008D8019B272B02D80823039307E01023F0
:102D6000039304E040F691310D48FDF7F9FA039B17
:102D7000013B0393039B1A02039B1B03134303931F
:102D8000064BDB6C23F47F420449039B1343CB6463
:102D9000FFF7A0FA00BF05B05DF804FB00300E405D
:102DA000F896000000B585B003468DF80730002185
:102DB0001248FEF76FFF0390039B002B03D19DF891
:102DC0000730012B07D9039B002B04D140F6AF310C
:102DD0000B48FDF7C5FA0B4B1B6F23F007029DF85C
:102DE0000730084913430B67074B1B881846FFF74A
:102DF00067FF00BF05B05DF804FB00BF4C300E401C
:102E0000F896000000300E403612002084B0019089
:102E10000091019B03F1C0630393039B009A1A6026
:102E200000BF04B0704784B001900091019B03F192
:102E300080630393039B009A1A6000BF04B070473D
:102E400000B587B0039002910192FEF7CDFE059088
:102E5000039B1A68029BDB431A400199029B0B40BB
:102E60001A43039B1A600598FEF7CAFE00BF07B01D
:102E70005DF804FB00B583B0034600918DF8073080
:102E80009DF80730002B42D09DF80730012B3BD036
:102E90009DF80730022B34D09DF80730032B2DD03E
:102EA0009DF80730042B27D09DF80730052B20D044
:102EB0009DF80730062B1AD09DF80730072B14D049
:102EC0009DF80730082B0ED09DF80730092B07D04E
:102ED0009DF807300A2B01D107231AE0002318E0E0
:102EE0004FF4404315E00F2313E0002311E00023CB
:102EF0000FE04FF6FF730CE000230AE04FF47F432E
:102F000007E040F6FF7304E04FF6C07301E040F2C3
:102F1000FF33009AD34003F00103002B04D14FF498
:102F200079710D48FDF71CFA9DF8072013465B00E8
:102F300013441B010C3303F1804303F520430121AB
:102F4000009A01FA02F211461846FFF76CFF00BF23
:102F500003B05DF804FB00BFC497000000B583B068
:102F6000034600918DF807309DF80730002B42D0C2
:102F70009DF80730012B3BD09DF80730022B34D051
:102F80009DF80730032B2DD09DF80730042B27D058
:102F90009DF80730052B20D09DF80730062B1AD05E
:102FA0009DF80730072B14D09DF80730082B0ED062
:102FB0009DF80730092B07D09DF807300A2B01D167
:102FC00007231AE0002318E04FF4404315E00F23D5
:102FD00013E0002311E000230FE04FF6FF730CE035
:102FE00000230AE04FF47F4307E040F6FF7304E05C
:102FF0004FF6C07301E040F2FF33009AD34003F074
:103000000103002B04D140F213410D48FDF7A8F94C
:103010009DF8072013465B0013441B010C3303F19A
:10302000804303F520430121009A01FA02F2114680
:103030001846FFF7EBFE00BF03B05DF804FB00BFCE
:10304000C497000000B583B0034600918DF80730A7
:103050009DF80730002B27D09DF80730012B23D097
:103060009DF80730022B1FD09DF80730032B1BD093
:103070009DF80730042B1CD09DF80730052B13D08A
:103080009DF80730062B14D09DF80730072B10D081
:103090009DF80730082B07D09DF80730092B03D087
:1030A0009DF807300A2B04D1009B23F00113002B5D
:1030B00003D07D210B48FDF753F99DF807201346F7
:1030C0005B0013441B0103F1804303F52043009A86
:1030D0004FF001111846FFF7B3FE00BF03B05DF8D3
:1030E00004FB00BF2898000000B585B00291019351
:1030F00003468DF80F3013468DF80E309DF80F30D3
:10310000002B42D09DF80F30012B3BD09DF80F30A3
:10311000022B34D09DF80F30032B2DD09DF80F30AB
:10312000042B27D09DF80F30052B20D09DF80F30B1
:10313000062B1AD09DF80F30072B14D09DF80F30B6
:10314000082B0ED09DF80F30092B07D09DF80F30BB
:103150000A2B01D107231AE0002318E04FF4404363
:1031600015E00F2313E0002311E000230FE04FF6DA
:10317000FF730CE000230AE04FF47F4307E040F6C2
:10318000FF7304E04FF6C07301E040F2FF33029A90
:10319000D34003F00103002B04D140F21D113D4840
:1031A000FDF7DEF89DF80E30002B0FD0019B002BB1
:1031B00006D09DF80F3002991846FFF7CFFE05E0C4
:1031C0009DF80F3002991846FFF754FE029B072B1B
:1031D00023D831499DF80F2013465B0013441B018F
:1031E0000B4404331A68029B9B000F2101FA03F37E
:1031F000DB4313409DF80E10029A920001FA02F28E
:10320000114625489DF80F20194313465B001344CF
:103210001B0103440433196024E01F499DF80F206B
:1032200013465B0013441B010B4408331A68029BCE
:10323000083B9B000F2101FA03F3DB4313409DF889
:103240000E10029A083A920001FA02F21146124850
:103250009DF80F20194313465B0013441B010344E0
:10326000083319609DF80E30002B0FD1019B002B05
:1032700006D09DF80F3002991846FFF76FFE05E063
:103280009DF80F3002991846FFF7F4FD00BF05B016
:103290005DF804FB2898000000A0004082B0019077
:1032A0000091019B009ADA6300BF02B070470000F2
:1032B00000B587B0039002910192029B1F2B03D9A6
:1032C00091210A48FDF74CF8039B03F1424303F5B3
:1032D0008013DA00029B13449B000593059B019A1F
:1032E0001A6000BF07B05DF804FB00BF8C980000B7
:1032F00000B587B0039002910192FEF775FC05902E
:10330000039B1A68029BDB431A400199029B0B4006
:103310001A43039B1A600598FEF772FC00BF07B0C2
:103320005DF804FB00B589B00390029101928DF81D
:103330000330019B002B04D140F20F115A48FDF7D6
:103340000FF8019B002B00F0AB809DF8033003F0D9
:1033500003038DF80330039B1B6823F44072039B27
:103360001A6003989DF803301B021A464FF440710F
:10337000FFF7BEFF029B002B16D1039B4B4A9342E3
:1033800004D14B48FDF71CFB02900DE0039B494A1A
:10339000934204D14848FDF713FB029004E040F249
:1033A00029114148FCF7DCFF4FF0FF330793039BE3
:1033B0001B6803F00203002B13D09DF80330022B8F
:1033C0000CD0022B21DC002B02D0012B03D01CE0FF
:1033D0003A4B07931CE03A4B079319E0394B07939C
:1033E00016E09DF80330022B0CD0022B0FDC002BD3
:1033F00002D0012B03D00AE0304B079308E0324B98
:10340000079305E0314B079302E000BF00E000BFE7
:10341000029A079B9A4204D84FF4AF712248FCF7F6
:103420009FFF9DF803302A4AD35C0593059B019AC0
:1034300002FB03F30493049B002B05D140F26F11B0
:103440001948FCF78DFF2CE0019BDB00029AD21A91
:10345000049B13445A1E049BB2FBF3F3013B0693F7
:10346000069B002B04DA40F275110F48FCF778FF39
:10347000069BB3F5007F04D34FF4BB710A48FCF7F9
:103480006FFF039B1B6803F00203002B04D0069B15
:10349000002B01D101230693069A039B1A6100E0D9
:1034A00000BF09B05DF804FBF098000000C00040C8
:1034B0000082040000C400400092040080841E00CA
:1034C000404B4C00809FD50040548900002D3101B5
:1034D0002099000000B583B001900B468DF80330B1
:1034E000019B0B4A934208D0019B0A4A934204D0A5
:1034F00040F28F110848FCF733FF019B9DF8032031
:1035000000211846FFF7D4FE00BF03B05DF804FBAE
:1035100000C0004000C40040F098000000B583B037
:1035200001900091019B184A934208D0019B174AD1
:10353000934204D04FF4D2711548FCF711FF019B60
:1035400000221A6413490198FFF7A8FE0198009B16
:103550005B7883F00103DBB21A460121FFF7A8FE76
:10356000009B5968009B9A68009B1B7B0198FFF7A2
:10357000D9FE009B1B7819460198FFF7ABFF00BFEF
:1035800003B05DF804FB00BF00C0004000C4004071
:10359000F0980000FFFF070082B00190009100BF8B
:1035A000019B5A6B009B1340002BF9D100BF00BF59
:1035B00002B0704700B585B0039002910192039B61
:1035C000104A934207D1029B012B04D8019B1B0C8C
:1035D0001B04002B03D0D9210B48FCF7C1FE029B32
:1035E000002B03D0029B012B04D007E0039B019A20
:1035F0001A6103E0039B019A5A6100BF00BF05B046
:103600005DF804FB006004402499000000B583B01D
:1036100001900B468DF80330019B0D4A934204D074
:1036200040F209110B48FCF79BFE02210198FFF7BD
:10363000B3FF9DF80330002B03D0019B01225A6099
:1036400002E0019B02225A6000BF03B05DF804FB58
:10365000006004402499000000B585B001900091FD
:1036600000230393019B3E4A934204D04FF4B3716D
:103670003C48FCF775FE009B1B7883F00103DBB22E
:10368000002B0CD0019B9B6803F00103002B06D09C
:1036900002210198FFF780FF019B02225A60009BE4
:1036A0005B78002B03D0039B43F480530393009B70
:1036B0009B78002B03D1009BDB68002B0BD0039B76
:1036C00043F400730393009BDB68002B03D0009B43
:1036D000DA68019B1A61009BDB78002B03D0039B07
:1036E00043F480730393009B1B79002B03D0039B4F
:1036F00043F040030393009B5B79002B03D0039BB3
:1037000043F080030393009B9B799B001A46039B25
:1037100013430393009BDB791B011A46039B13435E
:103720000393009B1B7A1A46039B13430393019B4D
:10373000039A1A60009B1B78002B0CD0019B9B689E
:1037400003F00103002B06D102210198FFF724FFAB
:10375000019B01225A6000BF05B05DF804FB00BF69
:10376000006004402499000000B585B003900291E8
:103770000192039B114A934207D1029B012B04D86B
:10378000019B23F0FF03002B04D04FF4FD710C4884
:10379000FCF7E6FD029B002B03D0029B012B04D01B
:1037A00007E0039B019A9A6103E0039B019ADA61A7
:1037B00000BF00BF05B05DF804FB00BF006004401F
:1037C0002499000082B001900091019B1B6C03F0D2
:1037D0000103002B07D100BF019B5A6C009B1340D3
:1037E000002BF9D100E000BF02B0704700B587B0F0
:1037F000039002910192019B002B03D1FE211D48F1
:10380000FCF7AEFD029B002B10D1039B1A4A93429A
:1038100006D11A4B05930598FDF7D2F8029005E002
:103820004FF493711348FCF79BFD1FE0029B5A0174
:10383000019BB2FBF3F30493049B203B0493049B92
:10384000DB000493049B0E4A934204D940F23311E7
:103850000848FCF785FD049A094B134004930421A2
:103860000398FFF7AFFF039B049ADA6007B05DF897
:1038700004FB00BF5899000000A0044090171A00F4
:10388000F8FF010000B585B001900B468DF80330BC
:10389000019B114A934204D040F257110F48FCF7A4
:1038A0005FFD9DF80330DB430393039B03F00503A7
:1038B0000393039B5B0003939DF80330039A134328
:1038C000039302210198FFF77DFF019B039A5A6041
:1038D00000BF05B05DF804FB00A00440589900004B
:1038E00082B001900B468DF803309DF80330002B19
:1038F00008D000BF019B5B6C002BFBD1019B012218
:103900001A6402E0019B00221A6400BF02B07047F3
:1039100000B583B001900091019B1B4A934204D0F3
:103920004FF4DC711948FCF71BFD02210198FFF7E9
:1039300049FF019B0A225A6001210198FFF7D0FF3D
:10394000019B1B6823F01C03009A127B1343009A0F
:10395000527B1343009A927B1A43019B1A60009B8F
:103960005968009B9B681A460198FFF73FFF009B30
:103970001B781A46019B5A6000210198FFF7B0FF9F
:1039800000BF03B05DF804FB00A00440589900009C
:1039900082B00190019B0C4A93420BD0019B0B4AD1
:1039A000934207D0019B0A4A934203D0019B094AE4
:1039B000934201D1012300E0002303F00103DBB2B5
:1039C000184602B0704700BF0080014000840140EB
:1039D00000A0014000A4014000B585B00190009115
:1039E0000198FFF7D5FF0346002B03D19A213748F2
:1039F000FCF7B6FC00230393009B1B7883F00103C4
:103A0000DBB2002B02D0019B02225A60019B0022F4
:103A10005A62009B9B781A06009BDB781B041A43B2
:103A2000009B9B799B021A43009BDB791B0213438B
:103A3000009A127A1343009A5278002A01D0402249
:103A400000E000221343009A527A002A01D080221B
:103A500000E000221343009A927A002A01D020222B
:103A600000E000221343009AD27A002A01D01022EB
:103A700000E000221343009A127B002A01D00822A2
:103A800000E0002213430393009B1B79002B02D01C
:103A90004FF4005200E00022009B5B79002B02D023
:103AA0004FF0805300E000231343039A1343039322
:103AB000019B039A1A60009B1B78002B02D0019B8C
:103AC00001225A6000BF05B05DF804FBF4990000C4
:103AD00000B58BB003468DF807309DF8073003F032
:103AE0000103002B0ED0614B1B889BB201339AB2AD
:103AF0005E4B1A8000F06EF95D4B1B68002B01D005
:103B000000F04EF99DF8073003F00203002B00F09F
:103B1000A8800023089300F041FA07900023069341
:103B200000230593534B1B68079AD31A0893FEF79B
:103B300071F8099063E0089B04934D4B1B68039355
:103B40004B4B1B6806934B4A079B13600FE0069B89
:103B50001A79039B1B799A4201D9039B0693039B15
:103B60005B69049AD31A0493039B9B680393039B9A
:103B7000002B04D0039B5B69049A9A42E7D2099810
:103B8000FEF758F8069B5B69089AD31A0893069BC0
:103B900000225A61FEF73EF80990069800F0C6F838
:103BA0000998FEF747F8069B1B69002B0BD0FEF720
:103BB00031F80990069B1B691946069800F05EF8DB
:103BC0000998FEF737F8069BDB68002B06D0069BAA
:103BD000DB68069A1268114606989847059B0133E0
:103BE000059300F0DBF90290029A079BD31A089A1A
:103BF00013440893029B0793FEF70CF809901C4BA3
:103C00001B68002B05D01A4B1B685B69089A9A4207
:103C100091D2194B00221A70059B012B09D1069BEA
:103C2000002B06D0069BDB88022B02D1124B01220F
:103C30001A700F4B1B68002B0DD00D4B1B68596978
:103C40000B4B1B68089A8A1A5A610A4A079B136031
:103C500000F0A6F802E0022000F01EFA0998FDF735
:103C6000E9FF00BF0BB05DF804FB00BF4C12002061
:103C700050120020541200205912002086B00190EA
:103C80000091009B0593019B059A5A61264B1B6886
:103C9000002B40D000230493234B1B6803930CE0BC
:103CA000039B5B69059AD31A0593019B059A5A6198
:103CB000039B0493039B9B680393039B002B13D0EC
:103CC000039B5B69059A9A42EAD2039B5B69002BCE
:103CD000E6D0039B5B69059A9A4205D1019B1A794C
:103CE000039B1B799A42DBD8049B002B03D0049BD7
:103CF000019A9A6002E00C4A019B1360019B039AAF
:103D00009A60039B002B0CD0039B5A69059BD21A27
:103D1000039B5A6105E0044A019B1360019B00224A
:103D20009A6000BF06B070475012002084B0019026
:103D300000230393194B1B68029304E0029B039337
:103D4000029B9B680293029B002B03D0029A019B6B
:103D50009A42F3D1029A019B9A4201D0022319E0C0
:103D6000039B002B04D0019B9A68039B9A6003E09D
:103D7000019B9B68094A1360019B9B68002B08D03C
:103D8000019B9B685969019B5A69019B9B680A4486
:103D90005A610023184604B0704700BF501200203B
:103DA00000B583B0094B1B685A69094B1B68134463
:103DB0000193022000F04EF9019800F0FDF800F0A8
:103DC00041F800BF03B05DF804FB00BF50120020B3
:103DD0005412002000B583B000F0E0F80190174BBA
:103DE0001B68002B22D0164B1B68019AD31A009334
:103DF000124B1B685B69009A9A420BD80F4B1B68E9
:103E000059690E4B1B68009A8A1A5A610C4A019B29
:103E100013600EE0094B1B685B69019AD31A084ACC
:103E20001360064B1B6800225A6102E0044A019BA2
:103E3000136000BF03B05DF804FB00BF5012002008
:103E40005412002082B0134B1B680193002300938F
:103E5000114B00221A7014E0019BDB8803F002036F
:103E6000002B03D00C4B01221A700FE0019B9B68C2
:103E70000193019B002B08D0019B5B69009A1344BE
:103E80000093009B012BE7D900E000BF00BF02B008
:103E9000704700BF501200205812002000B583B0B8
:103EA0000190019B022B04D940F293110648FCF7C4
:103EB00057FA064A019B04331B01134404331B6861
:103EC000184603B05DF804FB289A00000020044067
:103ED00000B583B001900091019B022B04D940F200
:103EE000A7110748FCF73CFA064A019B04331B0163
:103EF00013440433009A1A6000BF03B05DF804FB5A
:103F0000289A00000020044000B583B00190019879
:103F1000FFF7C4FF0346184603B05DF804FB00B585
:103F200083B00190009100990198FFF7D1FF00BF85
:103F300003B05DF804FB0000014B9B681846704716
:103F40000020044082B00190024A019B136200BF2E
:103F500002B070470020044082B00190044B5A6ABE
:103F6000019BDB43024913404B6200BF02B0704724
:103F70000020044082B00190044B5A6A0349019B1F
:103F800013434B6200BF02B0704700BF00200440E3
:103F9000014B9B69184670470020044008B5FFF7A5
:103FA000CBFF0346184608BD08B50120FFF7ACFF5C
:103FB0000346184608BD000000B587B00190FFF722
:103FC000EDFF0490FFF7F0FF0390019B0593FFF7CF
:103FD000DFFF034603F00403002B0AD10499039882
:103FE00000F0BDF80346032B03D8039A049B9A42C2
:103FF0001BD10499059800F0B2F80346022B02D8B1
:10400000049B03330593059BB3F1FF3F2CBF0122B3
:10401000002252429B1A0593059B013B1946012041
:10402000FFF77DFF022000F015F8084B1B78002BEE
:1040300008D0074B1B6D064A43F002031365034B80
:1040400000221A7000BF07B05DF804FB18100020B2
:104050000020044000B585B003468DF807300023EA
:1040600003939DF8073003F00103002B03D0039B5B
:1040700043F0010303939DF8073003F00203002B84
:1040800003D0039B43F0040303930398FFF772FFED
:1040900000BF05B05DF804FB00B585B003468DF8A0
:1040A0000730002303939DF8073003F00103002B32
:1040B00003D0039B43F0010303939DF8073003F003
:1040C0000203002B0CD0039B43F004030393084B23
:1040D00001221A70074B1B6D064A23F00303136578
:1040E0000398FFF739FF00BF05B05DF804FB00BF80
:1040F000181000200020044000B585B000238DF882
:104100000F30FDF787FD0290FFF742FF0190019B02
:1041100003F00103002B05D09DF80F3043F001039D
:104120008DF80F30019B03F00403002B05D09DF8A0
:104130000F3043F002038DF80F30019B03F00703AB
:104140001846FFF7FFFE9DF80F301846FFF7C0FC3A
:104150000298FDF76FFD00BF05B05DF804FB82B06B
:1041600001900091019A009BD31A184602B0704743
:1041700082B00190019B0C4A93420BD0019B0B4AE9
:10418000934207D0019B0A4A934203D0019B094AFC
:10419000934201D1012300E0002303F00103DBB2CD
:1041A000184602B0704700BF008001400084014003
:1041B00000A0014000A4014000B583B001900B466F
:1041C0008DF803300198FFF7D3FF0346002B04D18D
:1041D0004FF451710848FCF7C3F89DF80330002BE9
:1041E00003D0019B01225A6002E0019B02225A6027
:1041F00000BF03B05DF804FB6C9B000000B589B004
:1042000001902348FCF7DCFB0790079B214AA2FBA7
:1042100003239B09019A02FB03F39B0A06930121E6
:104220001D48FCF75FFB02AB00221A605A609A60DF
:104230001A7301238DF8083001238DF81330002301
:104240008DF8083001238DF810300A238DF80A30DC
:1042500000238DF8093002AB19461048FFF7BCFB6C
:104260000E4A069B536201210C48FFF7A5FF00BFD1
:104270000A4B5B6A002BFBD100210848FFF79CFF2B
:1042800000210548FCF72EFB00BF09B05DF804FBD8
:1042900040410500D34D621000020400008001403F
:1042A00084B001900091019B03F1C0630393039BD1
:1042B000009A1A6000BF04B0704784B0019000916A
:1042C000019B03F180630393039B009A1A6000BF74
:1042D00004B0704700B583B0034600918DF80730F5
:1042E0009DF80730002B42D09DF80730012B3BD0C2
:1042F0009DF80730022B34D09DF80730032B2DD0CA
:104300009DF80730042B27D09DF80730052B20D0CF
:104310009DF80730062B1AD09DF80730072B14D0D4
:104320009DF80730082B0ED09DF80730092B07D0D9
:104330009DF807300A2B01D107231AE0002318E06B
:104340004FF4404315E00F2313E0002311E0002356
:104350000FE04FF6FF730CE000230AE04FF47F43B9
:1043600007E040F6FF7304E04FF6C07301E040F24F
:10437000FF33009AD34003F00103002B04D14FF424
:1043800079710D48FBF7ECFF9DF8072013465B00A1
:1043900013441B010C3303F1804303F52043012137
:1043A000009A01FA02F211461846FFF786FF00BF95
:1043B00003B05DF804FB00BFD49B000000B583B0E0
:1043C000034600918DF807309DF80730002B42D04E
:1043D0009DF80730012B3BD09DF80730022B34D0DD
:1043E0009DF80730032B2DD09DF80730042B27D0E4
:1043F0009DF80730052B20D09DF80730062B1AD0EA
:104400009DF80730072B14D09DF80730082B0ED0ED
:104410009DF80730092B07D09DF807300A2B01D1F2
:1044200007231AE0002318E04FF4404315E00F2360
:1044300013E0002311E000230FE04FF6FF730CE0C0
:1044400000230AE04FF47F4307E040F6FF7304E0E7
:104450004FF6C07301E040F2FF33009AD34003F0FF
:104460000103002B04D140F213410D48FBF778FF04
:104470009DF8072013465B0013441B010C3303F126
:10448000804303F520430121009A01FA02F211460C
:104490001846FFF705FF00BF03B05DF804FB00BF3F
:1044A000D49B000008B50C4B00221A700021082094
:1044B000FFF710FF01210820FFF70CFF0221082061
:1044C000FFF708FF03210820FFF704FF0E21092052
:1044D000FFF774FF00BF08BD5A12002000B585B079
:1044E0000390029113468DF80730029B03F00103FD
:1044F000002B08D09DF80730002B04D00B2103209F
:10450000FFF75CFF0FE0029B03F00103002B0AD0D2
:104510009DF8073083F00103DBB2002B03D00B21A1
:104520000320FFF7D7FE029B03F00203002B08D005
:104530009DF80730002B04D00C210320FFF73EFF2D
:104540000FE0029B03F00203002B0AD09DF8073016
:1045500083F00103DBB2002B03D00C210320FFF713
:10456000B9FE029B03F00403002B08D09DF807302E
:10457000002B04D00D210320FFF720FF0FE0029B4A
:1045800003F00403002B0AD09DF8073083F00103E9
:10459000DBB2002B03D00D210320FFF79BFE039B12
:1045A00003F00103002B08D09DF80730002B04D046
:1045B00000210820FFF702FF0FE0039B03F0010337
:1045C000002B0AD09DF8073083F00103DBB2002BEB
:1045D00003D000210820FFF77DFE039B03F00203B8
:1045E000002B08D09DF80730002B04D001210820B3
:1045F000FFF7E4FE0FE0039B03F00203002B0AD059
:104600009DF8073083F00103DBB2002B03D00121BA
:104610000820FFF75FFE039B03F00403002B08D084
:104620009DF80730002B04D002210820FFF7C6FEBA
:104630000FE0039B03F00403002B0AD09DF8073022
:1046400083F00103DBB2002B03D002210820FFF727
:1046500041FE039B03F00803002B08D09DF80730B0
:10466000002B04D003210820FFF7A8FE0FE0039BD6
:1046700003F00803002B0AD09DF8073083F00103F4
:10468000DBB2002B03D003210820FFF723FE00BF7D
:1046900005B05DF804FB000008B500F0EBFF01F089
:1046A00079F900F02FF900F053F901F0D1F800F09A
:1046B0004BF8032001F084F90021002000F0DAF823
:1046C0004FF48053112205494FF07E5000F008F856
:1046D000102000F0D7FF00BF08BD00BF6F12033BE2
:1046E00000B591B00390029101920093029B09934F
:1046F00000238DF8103000238DF8113001238DF840
:104700001C3001238DF81D30019B0593009B0693FF
:10471000039B089300238DF8283001230B9301237A
:104720008DF8303002230D9301238DF838300423A7
:104730000F9304AB1946034800F078FC00BF11B09A
:104740005DF804FB0060044008B5034B00221A60CA
:10475000FFF7A8FE00BF08BD6012002008B501F0F9
:10476000F3F800BF08BD000000B591B0082001F0CB
:10477000F9F8154B1B680333134A1360134B1B687E
:104780000133124A1360104B1B6807EE903AF8EEA3
:10479000676A0E4B1B6807EE903AB8EE677AC6EE72
:1047A000877ACDED0F7A0F9801F0D4FB02460B46C5
:1047B0006846074902F0E0F86B46184600F090F8AA
:1047C00000BF11B05DF804FB1C1000205C1200203B
:1047D000389C000000B593B001F0B0F81190119B27
:1047E000132B11D8012204210220FFF777FE119B21
:1047F0000F936B460F9A1049184602F0BDF86B46AE
:10480000184600F06DF813E0119B132B10D900220D
:1048100004210220FFF762FE119B10936B46109A51
:104820000649184602F0A8F86B46184600F058F8FA
:1048300000BF13B05DF804FB449C0000549C0000D2
:1048400000B585B0084A01AB07CA83E8070001AB91
:10485000184600F045F80121044800F0D1FC00BFE3
:1048600005B05DF804FB00BF6C9C000000600440D4
:1048700000BF704700B58FB0019000911920FFF77D
:10488000BDFC4FF41653029300238DF80C30052322
:104890008DF80D3000238DF80E3000230D93009B12
:1048A0000B9301238DF828301B23069301230793D4
:1048B00000238DF80F30019B0C9301238DF82930D4
:1048C0004FF4D85308930123099302AB19460348C8
:1048D00000F0C0FD00BF0FB05DF804FB00A0044075
:1048E00000B585B00190019802F06EF80390039A2C
:1048F0000199034800F04CFE00BF05B05DF804FBD1
:1049000000A0044008B501210D48FBF7EBFF002291
:1049100000210120FCF7FCFE012201210020FCF710
:10492000F7FE0A210748FCF77BFB02210648FCF74B
:1049300077FB01210548FBF7D5FF00BF08BD00BF8D
:104940004041050002001E000300200030253E000B
:1049500008B501213948FBF7C5FF4FF001110320CD
:10496000FEF770FB0023042208210320FEF7BCFBA6
:104970004FF001110320FEF765FB002304220921FB
:104980000320FEF7B1FB002304220E210920FEF7CD
:10499000ABFB0023042200210820FEF7A5FB002327
:1049A000042201210820FEF79FFB0023042202219C
:1049B0000820FEF799FB0023042203210820FEF7BC
:1049C00093FB002304220B210320FEF78DFB002321
:1049D00004220C210320FEF787FB002304220D2173
:1049E0000320FEF781FB4FF001110520FEF72AFBA3
:1049F0000123042209210520FEF776FB012308226A
:104A000005210220FEF770FB012308220421022069
:104A1000FEF76AFB0123042203210520FEF764FB55
:104A20000123012204210520FEF75EFB4FF48031B3
:104A30000520FEF707FB00BF08BD00BF00350A00D8
:104A400082B003468DF807309DF90730002B0CDB50
:104A50009DF8073003F01F0205499DF907305B09F7
:104A6000012000FA02F241F8232000BF02B0704793
:104A700000E100E000B583B00190019B5B7A042B5C
:104A800052D801A252F823F09D4A0000CD4A0000FE
:104A9000334B0000F14A0000334B0000019B1B69BF
:104AA000019A5269DA62019B1B7E83F00103DBB23B
:104AB000002B03D0019B03225A723CE0019B1B7E1A
:104AC000002B38D0019B01225A7234E0019B1B69F4
:104AD00001225A60019BDB685A00019B1B7E19462C
:104AE000019B1B690A43DA62019B02225A7225E08C
:104AF000019B5B685A1E019B5A60019B1B681A68E8
:104B0000019B5B68DB00DA40019B1B69D2B2DA6271
:104B1000019B5B68002B10D1019B1B6902225A602C
:104B2000019B04225A7209E05D210648FBF718FC3C
:104B300004E000BF02E000BF00E000BF00BF03B020
:104B40005DF804FB789C000000B583B00190019BE8
:104B50005B7A022B10D0022B46DC002B02D0012BFB
:104B600005D041E081212548FBF7FAFB41E0852192
:104B70002248FBF7F5FB3CE0019B5B685A1E019B5A
:104B80005A60019B1B681A68019B5B68DB00FF2170
:104B900001FA03F3DB431946019B1B680A401A60C4
:104BA000019B1B69DA69019B5B68DB0002FA03F178
:104BB000019B1B681A68019B1B680A431A60019BD2
:104BC0005B68002B04D0019B1B6904225A6010E033
:104BD000019B1B6908225A60019B1B6902225A60D3
:104BE000019B04225A7204E09B210448FBF7B8FBA6
:104BF00000BF00BF03B05DF804FB00BF789C00005D
:104C000000B583B00190019B5B7A052B31D801A2DE
:104C100052F823F02D4C0000374C0000414C0000AE
:104C2000734C00004B4C0000694C0000BC2115483F
:104C3000FBF796FB22E0C0211248FBF791FB1DE039
:104C4000C4211048FBF78CFB18E0022000F0DCFECA
:104C5000019B01221A72019B00225A72019BDB699F
:104C6000184600F00FFD09E0CF210648FBF778FB5E
:104C700004E0D3210348FBF773FB00BF00BF03B080
:104C80005DF804FB789C000084B00190019B202219
:104C90005A60019B1B6C0393019B00221A64019BC9
:104CA0005A6B019BDA63019B40225A60019B0322ED
:104CB0005A6000BF019B5B6B03F48073002BF9D03B
:104CC000019B5A6B019BDA63019B20225A60019B76
:104CD000039A1A6400BF04B07047000000B587B0A3
:104CE00001900091019B4B4A934207D101214A4810
:104CF000FBF7F8FD494B01221A720AE0019B484A72
:104D0000934206D101214748FBF7ECFD464B0122B7
:104D10001A72019B5B6B03F00103002B11D1019B05
:104D200001229A63019B5B6B03F00103002B04D10A
:104D30004FF498713D48FBF713FB019B0122DA63A6
:104D40000DE0019B0122DA63019B5B6B03F0010321
:104D5000002B04D040F235113448FBF701FB009BD7
:104D60001B7B8DF81430009B9B680493009B5B7841
:104D70008DF80930009B5B680393009B1B788DF8CE
:104D8000083002AB19460198FEF7C8FB009B1A6970
:104D9000009B5B691A43019B9A64019B5A6C009BC0
:104DA0005B7E5B001A43019B5A64019B5B6C009A1B
:104DB000127E1A43019B5A64019B1A6C009B9B7ED6
:104DC0009B011A43019B1A64019B1A6C009BDB7EBA
:104DD0005B011A43019B1A64019B1A6C009B1B7FA9
:104DE0001B021A43019B1A64019B0A4A934203D196
:104DF0001120FFF725FE06E0019B094A934202D1EC
:104E00002A20FFF71DFE0198FFF73EFF00BF07B005
:104E10005DF804FB00C00040008204006412002022
:104E200000C400400092040084120020789C00001E
:104E300000B587B002910192009303468DF80F30C0
:104E4000099B284A934202D1274B05930BE0099B0B
:104E5000264A934202D1264B059304E04FF4C971D0
:104E60002448FBF77DFA00BF059B1B7ADBB283F079
:104E70000103DBB2002BF7D1099B9B6803F0E00331
:104E8000002B04D04FF4CB711A48FBF769FA0220CB
:104E900000F096FD059B00221A72059B9DF80F20DD
:104EA0001A76059B029A1A60059B019A5A60059B27
:104EB000009ADA60059B089A5A61059B099A1A6163
:104EC000059B0A9ADA61059B00225A72099B01220E
:104ED0005A60059BDB685A00099BDA6200BF07B085
:104EE0005DF804FB00C000406412002000C40040D4
:104EF00084120020789C000000B583B00190019BD3
:104F00000C4A934203D10C4B1B7ADBB20DE0019BA0
:104F10000A4A934203D10A4B1B7ADBB205E04FF4F5
:104F2000DF710848FBF71CFA0023184603B05DF850
:104F300004FB00BF00C000406412002000C4004019
:104F400084120020789C000000B583B0124B5A6B8D
:104F5000114B1B6C134001930F4A019BD363019BC0
:104F600003F04003002B02D00C48FFF783FD019BA8
:104F700003F02003002B02D00848FFF7E5FD019B5A
:104F800003F48073002B02D00448FFF739FE00BF02
:104F900003B05DF804FB00BF00C0004064120020B5
:104FA00000B583B0124B5A6B114B1B6C134001932D
:104FB0000F4A019BD363019B03F04003002B02D0F7
:104FC0000C48FFF757FD019B03F02003002B02D094
:104FD0000848FFF7B9FD019B03F48073002B02D052
:104FE0000448FFF70DFE00BF03B05DF804FB00BFEF
:104FF00000C400408412002082B003468DF80730C0
:105000009DF90730002B0CDB9DF8073003F01F02E1
:1050100005499DF907305B09012000FA02F241F8C9
:10502000232000BF02B0704700E100E000B58BB064
:1050300001900091019B6B4A934203D101216A4880
:10504000FBF750FC0021019800F0DAF8019B0122E7
:105050005A6000BF019B5B6B002BFBD1019B9B68DF
:1050600003F00103002B03D15E216048FBF778F9C0
:10507000019B02225A6002E0019B0022DA60019B40
:105080005B6B002BF8D100238DF80F3001238DF8D6
:105090000E30009B1B788DF80D30009B5B788DF8EF
:1050A0000C3000238DF8103000238DF811300023D0
:1050B0008DF8143003238DF8123003238DF813304C
:1050C000009BDB694A4A1360009B5B6A494A136094
:1050D000009BDB6A484A136003AB19460198FEF750
:1050E000BBFA00BF019B5B6B002BFBD1009BD3ED98
:1050F000047A9FED427A67EE877AFCEEE77A17EE44
:10510000903A0993009BD3ED057A9FED3C7A67EEC8
:10511000877AFCEEE77A17EE903A0893099A002115
:105120000198FEF747FA089A01210198FEF742FA22
:10513000032200210198FEF717FB032201210198A9
:10514000FEF712FB009B5A68009B9B681A43019B69
:105150005A64019B1B6C009A127B1A43019B1A64D0
:10516000019B1A6C009B5B7B5B001A43019B1A64DA
:10517000019B9B6803F00103002B14BF0123002354
:105180008DF81F309DF81F30002B02D0042000F056
:1051900017FC019B01229A62019B02229A62019BE9
:1051A00004229A62019BDB6A009A127E1A43019BD9
:1051B000DA62019BDA6A009B93F820305B001A43A5
:1051C000019BDA62019BDA6A009B93F828309B000E
:1051D0001A43019BDA621B20FFF70EFF00BF0BB0E2
:1051E0005DF804FB0060044080061600949C0000FB
:1051F000A4120020A8120020AC12002000007A4463
:1052000000B585B001900B468DF80330019B9B687B
:1052100003F00103002B14BF012300238DF80F308E
:105220009DF80F3083F00103DBB2002B0BD09DF80B
:105230000330002B07D0042000F0C2FB00BF019B0D
:105240005B6B002BFBD19DF80F30002B0ED09DF82F
:10525000033083F00103DBB2002B07D0042000F001
:10526000D3FB00BF019B5B6B002BFBD19DF8033090
:1052700019460198FEF7CAF900BF05B05DF804FBB6
:1052800000B583B0254B1A6A244BDB6A13400193A7
:10529000224A019B9362019B03F00103002B0FD074
:1052A0001E4B1B6A03F00103002B04D04FF48571E1
:1052B0001B48FBF755F81B4B1B68184600F0E2F93A
:1052C000019B03F00203002B0FD0144B1B6A03F069
:1052D0000203002B04D040F20F111148FBF740F8F5
:1052E000114B1B68184600F0CDF9019B03F0040335
:1052F000002B0FD0094B1B6A03F00403002B04D0D2
:105300004FF48A710648FBF72BF8084B1B681846C8
:1053100000F0B8F900BF03B05DF804FB0060044082
:10532000949C0000A4120020A8120020AC120020BF
:1053300082B003468DF807309DF90730002B0CDB57
:105340009DF8073003F01F0205499DF907305B09FE
:10535000012000FA02F241F8232000BF02B070479A
:1053600000E100E000B583B00190019B93F8743038
:10537000002B02D0012B2AD02EE0019B9A6E019BBC
:105380005B6E9A420ED0019BD86F019B9B6E019A77
:10539000D35C194600F036F9019B9B6E5A1C019BA9
:1053A0009A661EE0019BDB6F9A6B019BDB6F22F01C
:1053B00002029A63019B012283F87420019BDB6F38
:1053C0009A6B019BDB6F42F001029A6309E058215E
:1053D0000648FAF7C5FF04E05B210448FAF7C0FF6E
:1053E00000BF00BF03B05DF804FB00BFB49C000029
:1053F00000B583B00190019B93F87430002B02D06C
:10540000012B05D018E073211048FAF7A9FF18E026
:10541000019BDB6F9A6B019BDB6F22F001029A63A9
:10542000019B002283F87420094B012283F86C2031
:10543000032000F0E9FA04E07D210448FAF790FF28
:1054400000BF00BF03B05DF804FB00BFB49C0000C8
:10545000B012002000B589B00190009101214948A7
:10546000FBF740FA019B01221A6100BF019B5B6CB4
:10547000002BFBD1019B1B6903F00103002B03D11F
:10548000A5214148FAF76CFF019B00221A6100BF79
:10549000019B5B6C002BFBD100238DF81F30009B20
:1054A0001B680593009B1B798DF81830009B9B7936
:1054B0008DF81930009BDB6A04939DF81F308DF83E
:1054C0000C30009BDB798DF81A30304B012283F8C9
:1054D0006C2003AB19460198FEF71AFA00BF019B36
:1054E0005B6C002BFBD1009B9A69009B1B691A43E4
:1054F000019B9A65019B5A6D009BDB695B001A4317
:10550000019B5A65019B5A6D009B5B691A43019B85
:105510005A65019B00221A6100BF019B5B6C002B46
:10552000FBD1019B00229A6200BF019B5B6C002BA8
:10553000FBD1009B5B7919460198FEF7A3F900BFE8
:10554000019B9B6803F00203002BF9D000BF019B75
:105550009B6803F00103002BF9D0019B9B6803F0CB
:105560000303002B03D1CA210748FAF7F9FE019B78
:1055700040F2F9725A631620FFF7DAFE00BF09B055
:105580005DF804FB90171A00B49C0000B0120020D4
:1055900000B587B003900291019200BF184B93F8B9
:1055A0006C30DBB283F00103DBB2002BF6D1FCF7E9
:1055B0001BFB0590032000F003FA114B002283F837
:1055C0006C200F4A019B53660D4B00229A660C4AD1
:1055D000039BD3670A4B002283F874200299084882
:1055E00001F0EAF9039B9B6B43F00202039B9A6371
:1055F0000598FCF705FB00BF07B05DF804FB00BF92
:10560000B012002082B001900B468DF8033000BF2D
:10561000019BDB6A03F00203002BF9D09DF8032005
:10562000019B9A6200BF02B07047000000B583B0D2
:105630000E4BDA6A0D4B9B6B134001930B4A019B97
:105640005363019B03F00203002B02D00848FFF7CD
:1056500089FE019B03F00103002B02D00448FFF7F1
:10566000C7FE00BF03B05DF804FB00BF00A004400C
:10567000B0120020024B00221A6000BF704700BF2A
:105680003013002000B585B00190FCF7ADFA03900F
:10569000064B1A68019B1343044A13600398FCF7F6
:1056A000AFFA00BF05B05DF804FB00BF3013002067
:1056B00000B585B00190FCF797FA0390019BDA439F
:1056C000054B1B681340044A13600398FCF798FAD3
:1056D00000BF05B05DF804FB30130020014B1B68D0
:1056E000184670473013002000B583B0544B002299
:1056F0001A6000220B21012000F000F900BF514880
:10570000FFF7FAFB034683F00103DBB2002BF6D16F
:1057100000221121012000F0D1F800BF4948FFF715
:10572000EBFB034683F00103DBB2002BF6D1464BC3
:105730001B6803F00F030193414B0B221A600022F8
:105740000A21012000F0DAF800BF3E48FFF7D4FB41
:10575000034683F00103DBB2002BF6D1384B8222E3
:105760001A6000220B21012000F0C8F800BF354864
:10577000FFF7C2FB034683F00103DBB2002BF6D137
:1057800000221121012000F099F800BF2D48FFF7F9
:10579000B3FB034683F00103DBB2002BF6D12A4BA7
:1057A0001B6803F00F02019B01339A4203D05C2176
:1057B0002648FAF7D5FD224B01221A6000220A2161
:1057C000012000F09BF800BF1E48FFF795FB034641
:1057D00083F00103DBB2002BF6D1194B81221A6052
:1057E00000220B21012000F089F800BF1548FFF7C7
:1057F00083FB034683F00103DBB2002BF6D10022CA
:105800001121012000F05AF800BF0E48FFF774FB89
:10581000034683F00103DBB2002BF6D10A4B1B6871
:1058200003F00F02019B02339A4204D07321074810
:10583000FAF796FD00BF00BF03B05DF804FB00BFA0
:105840003813002000C4004034130020D49C000012
:1058500000B589B01920FEF7D1FC164B0293012345
:105860008DF80C3001238DF8013001238DF80030C4
:1058700001238DF8193001238DF81830002301938E
:105880004FF4885304931123059301238DF81A30A4
:1058900001238DF81B3001238DF81C306B4619460F
:1058A0000548FFF71BFAFFF71FFF00BF09B05DF8BF
:1058B00004FB00BFDDFB050000C4004000B58BB059
:1058C00007900691059201238DF827305523089300
:1058D0009DF82700059B0293064B0193069B0093BE
:1058E000089B079A0449FFF7A3FA00BF0BB05DF8C5
:1058F00004FB00BF00C400403413002000B58BB08F
:1059000007900691059200238DF8273055230893C0
:105910009DF82700059B0293064B0193069B00937D
:10592000089B079A0449FFF783FA00BF0BB05DF8A4
:1059300004FB00BF00C4004038130020014B1B686B
:10594000184670473413002008B5054B11221A6021
:1059500000220B210120FFF7D1FF00BF08BD00BFCF
:105960003813002000B583B00190019A1321022062
:10597000FFF7A4FF00BF03B05DF804FB044B1B69F5
:10598000034A23F00403136130BF00BF704700BF18
:1059900000ED00E082B00023019307E0074A019B7D
:1059A000002142F82310019B01330193019B042B3A
:1059B000F4DD00BF00BF02B0704700BF3C13002001
:1059C00000B585B00190FCF70FF903900C4A019BDC
:1059D00052F823305A1C0A49019B41F82320084AF7
:1059E000019B52F82330042B03DD64210548FAF7AC
:1059F000B7FC0398FCF704F900BF05B05DF804FBA1
:105A00003C130020F49C000000B585B00190FCF729
:105A1000EBF803900C4A019B52F823305A1E0A49B6
:105A2000019B41F82320084A019B52F82330002BA8
:105A300003DA84210548FAF793FC0398FCF7E0F8B1
:105A400000BF05B05DF804FB3C130020F49C00008F
:105A500000B583B0FCF7C8F80190174B1B68002B0A
:105A600003DD0198FCF7CCF823E0134B5B68002BB7
:105A700003DD0198FCF7C4F81BE00F4B9B68002B7B
:105A800005DD0198FCF7BCF8FFF778FF11E00A4B41
:105A9000DB68002B06DD0120FCF782FA0198FCF799
:105AA000AFF806E00120FCF7CBFA0198FCF7A8F864
:105AB00000BF03B05DF804FB3C130020024BDB6C1D
:105AC0001B0EDBB218467047B081E00F00B583B003
:105AD0001D4B01225A64FFF7F1FF03468DF8073092
